:020000040800F2
:10000000D0040020D500000875190008E90F000889
:1000100000000000000000000000000000000000E0
:100020000000000000000000000000006D1B000840
:100030000000000000000000091A00086F1B000803
:10004000E7000008E7000008E7000008E7000008F4
:10005000E7000008E7000008E7000008E7000008E4
:10006000E7000008E7000008E7000008E7000008D4
:10007000E7000008E7000008E7000008E7000008C4
:10008000E7000008E7000008E7000008E7000008B4
:10009000E7000008E7000008E7000008E7000008A4
:1000A000ED0F0008E7000008E7000008E70000087F
:1000B000E7000008E7000008E7000008E700000884
:1000C0000348854600F06CF8004800478D22000880
:1000D000D00400200448804704480047FEE7FEE7BC
:1000E000FEE7FEE7FEE7FEE7F11B0008C10000089F
:1000F00030B50B46014600202022012409E00D46C0
:10010000D5409D4205D31D469540491B2546954047
:1001100040191546521E002DF1DC30BD10B5202AC5
:1001200004DB0846203AD040002110BD0B46D340E6
:10013000D0402024A21A91400843194610BDF0B5C2
:100140001FB40646002082B005464024019100906D
:100150001BE0019922460F463046FFF7DFFF049A65
:10016000059B801A994110D310461946224600F08B
:1001700029F8361A8F410197224601200021009F5D
:1001800000F020F838184D4100902046641E0028E9
:10019000DFDC019B00982946324607B0F0BD000025
:1001A000064C0125064E05E0E36807CC2B430C3CCA
:1001B00098471034B442F7D3FFF786FFC8220008EF
:1001C000E822000810B5202A04DB0146203A9140BD
:1001D000002010BD914020239C1A0346E3401943A0
:1001E000904010BD70B50024014620314A78022AA3
:1001F00003D004218163012416E0026813680E25F0
:10020000AB431360026813685B085B001360012254
:10021000056C1346AB40C56B6B604A7000220A70D8
:10022000416B002900D08847204670BD31B500F0F1
:10023000C3F8009C0546601C00D0641C00F0BCF8AC
:10024000401BA042FAD338BDF8B5002393E0224604
:1002500001249C40A44622407ED04C68022C01D050
:10026000122C0CD1DC08A40027183C6A5D07ED0EA7
:100270000F26AE40B4430E69AE4026433E62056889
:100280005E000324B4400F79A543BF07BF0FB740FA
:100290002F4307604D68012D05D0022D03D0112D8D
:1002A00001D0122D0ED18568CF68A543B7402F43EA
:1002B000876047686546AF430D79ED06ED0F9D40B9
:1002C0003D434560C568A5438C68B4402C43C46079
:1002D0004C68E4004ED52B4CA56901263543A56139
:1002E000A4699D0834400094274CAD002F19BC68C8
:1002F0009D072E0F0F25B540AC430925ED06A842FA
:1003000001D1002514E0214DA84201D101250FE0C3
:100310001F4DA84201D102250AE01E4DA84201D17D
:10032000032505E01C4DA84201D1042500E0052568
:10033000B5402543BD60194C25684E689543F603CA
:1003400000D51543256065684E689543B60300D512
:1003500015436560A56800E00CE04E689543F60221
:1003600000D51543A560E5684E689543B60200D5F3
:100370001543E5605B1C0A681446DA4000D066E766
:10038000F8BD0000001002400000014000040048D9
:1003900000080048000C004800100048000401401C
:1003A0000069084000D001207047002A01D0816117
:1003B0007047816270470000014800687047000084
:1003C0000000002070B5024640325378202B1CD12B
:1003D0001378012B19D0012313702424547004685E
:1003E00025689D432560046825681E03B543256084
:1003F000046825680D4325600068016819430160A1
:10040000202050700020107070BD022070BD70B5AB
:10041000024640325378202B1BD11378012B18D081
:10042000012414702423537003681D68A5431D60C4
:1004300005682B680F263602B34309021943296069
:100440000068016821430160202050700020107076
:1004500070BD022070BD7047704770B503689A691F
:100460001968D40507D50C0605D5446C01252C4325
:1004700044642C02DC61530508D50B0606D5436C99
:10048000082423434364E3010468E361920508D52B
:10049000090606D5416C022211434164110202682B
:1004A000D161416C0B22114202D0416C00F074FE0C
:1004B00070BD026891691268436B002B00D0184729
:1004C0007047704770B5040006D0254640356878FF
:1004D0000026002802D005E0012070BD2E702046C5
:1004E00000F08EF8242068702068016849084900EF
:1004F00001600F216068090688432168086121684E
:100500008A680120C00382438A60E1680129A168EA
:1005100008D021229202114322689160E1680229E9
:1005200002D005E00143F7E701212268C9025160CA
:1005300021684A680F4B1A434A602168CA6882439F
:10054000CA60616920690843A169090208432168FA
:10055000C860216AE0690843216808602068016872
:100560000122114301606664202068702663AE702A
:10057000002070BD00800002704770477047000087
:10058000F8B50546044640356878202830D1206803
:100590008069C04300042BD52878012828D0012089
:1005A0002870212068701020A8700026666462629E
:1005B00063851048E06210486063608DFF2804D9AD
:1005C000FF20012320851B0603E0608D0123208589
:1005D0005B06012040030090208DC2B2204601F04E
:1005E00033F92E700121204600F056FD0020F8BDA1
:1005F0000220F8BD0000FFFFA115000870477047FA
:1006000000B50068124987B088421FD1032040031B
:1006100000901220019000200290032003900520FA
:10062000049069460B48FFF70FFE0B48C269012191
:1006300089050A43C261C06900220840059011463D
:10064000182000F063F8182000F056F807B000BD3D
:1006500000580040000400480010024070477047F6
:1006600002480168491C016070470000000000203A
:1006700010B506480168102211430160002000F007
:1006800007F800F017F8002010BD0000002002401D
:1006900010B5044600F078F97D21C900FFF728FD68
:1006A00000F0C6FB00222146501E00F02FF800206B
:1006B00010BD000008B50F48816901221143816116
:1006C000816911400091C26901040A43C261C06995
:1006D0000022084000901146501F00F017F8002239
:1006E0001146901E00F012F800221146501E00F034
:1006F0000DF808BD00100240C106C90E0120884057
:10070000014908607047000000E100E010B501F009
:1007100033F910BDF8B504460068434DC00352D507
:10072000E8690026C00007D4E96928040143E961AB
:10073000E9690140012600913C480168C90510D4CF
:100740000168821511430160FFF736FE074604E099
:10075000FFF732FEC01B642824D834480068C00567
:10076000F6D5286A03273F02384020D06168394017
:1007700081421CD0286A2A6AB843012109040A432D
:100780002A622A6A8A432A622862C0070FD0FFF7CA
:1007900013FE009008E0FFF70FFE0099411A24486D
:1007A000814201D90320F8BD286A8007F3D5286A61
:1007B0006168B84308432862002E04D0E86901212B
:1007C00009078843E8612078C00705D0286BA16835
:1007D00080088000084328632078800706D5286BAE
:1007E000032109048843E1680843286320788006D0
:1007F00005D5286B102188432169084328632068A8
:10080000800305D5286B80218843A16908432863AC
:100810002088400505D5286B40218843616908433D
:1008200028630020F8BD0000001002400070004066
:1008300088130000F8B505464E480E460068C0070C
:10084000C00FB0420AD24B48016849084900314301
:1008500001600068C007C00FB04270D12878464CD4
:10086000800705D56068F0218843A9680843606067
:100870002878C00753D06868012817D0022818D0FC
:10088000032819D021688907002958DA6168890886
:10089000890001436160FFF78FFD69680746012900
:1008A00013D002291DD0032927D034E02168890301
:1008B000EAE721688901E7E7616BC903E4E7FFF72D
:1008C0007BFDC11B2D48814223D860680007800F43
:1008D0000128F4D123E0FFF76FFDC11B27488142B7
:1008E00017D860680007800F0228F4D117E0FFF7DF
:1008F00063FDC11B214881420BD860680007800F4F
:100900000328F4D10BE0FFF757FDC11B1B488142C0
:1009100001D90320F8BD60680007800FF3D11548A6
:100920000168C907C90FB1420BD9016849084900DC
:10093000314301600068C007C00FB04201D0012000
:10094000F8BD2878400706D560680721090288436A
:10095000E9680843606000F02DF86168084A0906FC
:10096000090F515CC840074908600020FFF790FE5E
:100970000020F8BD00200240001002408813000053
:10098000B022000804000020014800687047000001
:10099000040000200448054900684968044A4905E4
:1009A000490F515CC840704704000020001002400D
:1009B000C022000830B516A30FCB89B06C460FC417
:1009C00017A30FCB0FC41A494A680C2014460440E1
:1009D0001848042C05D0184B082C04D00C2C00D13E
:1009E000184609B030BD9402240F6D462C5DC96ACB
:1009F00004AD0907090FD203695C920F022A02D0E5
:100A0000032A00D11846FFF773FB6043E9E70000B3
:100A100002030405060708090A0B0C0D0E0F10103F
:100A20000102030405060708090A0B0C0D0E0F103E
:100A30000010024000127A00006CDC02FEB5044691
:100A40000078F04EF04DC00748D068680007800F6E
:100A500001281FD068680007800F022804D1686849
:100A6000C003800F022815D06168012919D0012028
:100A70008004002901D0052917D02968B1432960D5
:100A8000296881432960606800281BD0FFF794FC27
:100A9000074613E02868800320D56068002876D0D8
:100AA0001CE0286830432860EDE72968014329608D
:100AB000F7E7FFF781FCC01B642869D8286880032A
:100AC000F7D50BE0FFF778FC074604E0FFF774FC6E
:100AD000C01B6428F1D828688003F7D420788007E9
:100AE0003ED568680007800F14D068680007800F43
:100AF000022804D16868C003800F01280AD0E0688A
:100B0000002828681DD0012108432860FFF754FC05
:100B100007460BE0286880070BD5E068012836D12E
:100B200007E0FFF749FCC01B0228C6D828688007E9
:100B3000F7D52868F82188432169C900084328604F
:100B40000EE0400840002860FFF736FC074604E04E
:100B5000FFF732FCC01B0228AFD828688007F7D403
:100B60002078000724D5E0690028686A11D00121A7
:100B700008436862FFF720FC074604E0FFF71CFC0F
:100B8000C01B022899D8686A8007F7D510E036E1C3
:100B9000D1E0400840006862FFF70EFC074604E021
:100BA000FFF70AFCC01B022887D8686A8007F7D4C1
:100BB000207804274007002861DA00200190E869C6
:100BC000C00008D4E969B8060143E961E969014058
:100BD0000120009101908D480168C90511D4016878
:100BE000821511430160FFF7E7FB009005E0FFF776
:100BF000E3FB0099401A642897D884480068C00530
:100C0000F5D5A06801280AD0002801D0052811D008
:100C1000286A400840002862286AB84302E0286A2F
:100C2000012108432862A068002812D0FFF7C4FB06
:100C300000900AE0286A38432862F0E7FFF7BCFB1F
:100C40000099411A7248814275D8286A8007F5D503
:100C50000DE0FFF7B1FB009006E0FFF7ADFB009958
:100C6000411A6B48814266D8286A8007F5D40198FA
:100C7000002804D0E969012000078143E961207858
:100C8000C00635D5606901280CD0401D686B24D0A2
:100C900038436863686B400840006863FFF78CFB6B
:100CA000074622E0686B38436863686B012108439C
:100CB0006863FFF781FB074604E0FFF77DFBC01B7D
:100CC000022838D8686B8007F7D5686BF82188430D
:100CD000A169C900084368630AE0B8436863F4E7A0
:100CE000FFF76AFBC01B022825D8686B8007F7D482
:100CF0002078800637D568680007800F032813D056
:100D000068680007800F022804D16868C003800F5C
:100D1000032809D0206A0028686B16D03043686326
:100D2000FFF74AFB06460CE0686BC0031BD5206A40
:100D3000012864D117E05BE0FFF73EFB801B02282F
:100D400056D8686BC003F7D50DE0B0436863FFF772
:100D500033FB064604E0FFF72FFB801B022847D831
:100D6000686BC003F7D4606A002846D06968090739
:100D7000890F022943D0012636060228286805D0AB
:100D8000B0432860FFF718FB044633E0B043286007
:100D9000FFF712FB074604E0FFF70EFBC01B02281B
:100DA00026D828688001F7D4E86A216B0009000181
:100DB0000843E862A16AE06A084369687B22D203BB
:100DC000914308436860286830432860FFF7F4FACD
:100DD000044604E0FFF7F0FA001B022808D8286850
:100DE0008001F7D509E0FFF7E7FA001B022801D9D7
:100DF0000320FEBD28688001F5D40020FEBD01203F
:100E0000FEBD000000000100001002400070004024
:100E100088130000042204490428086902D0904382
:100E2000086170471043FBE700E000E070470000F6
:100E3000094910B5401E884201D9012010BD074C58
:100E400060610321081F00F097FD0020A0610720CA
:100E50002061002010BD0000FFFFFF0000E000E067
:100E600010B5FFF7E3FF10BD70B5040005D02546AF
:100E70006035687A002802D006E0012070BD0020AD
:100E80002872204600F026F8242068722068016845
:100E9000490849000160204600F078FF0128EDD0A4
:100EA000606A002802D0204600F0D0FE2068416829
:100EB0000922D20291434160206881682A2291432D
:100EC000816020680168012211430160204600F022
:100ED00023FF70BD00B500680F4987B0884218D164
:100EE0000E488269012189030A43826180690840B2
:100EF0000590032040020090022001900020029003
:100F0000032003900120049009206946C006FFF7E2
:100F10009BF907B000BD00000038014000100240FE
:100F2000FFB5064604466036707A83B00D46202829
:100F300058D1002D0CD00598002809D00120A168B7
:100F40000003814207D12069002804D1E80702D0BC
:100F5000012007B0F0BD307A012843D00120307263
:100F60000020E06621207072FFF726FA01902746E4
:100F70004037059838820598788218E0788A401EB4
:100F8000788206980090002280212046019B00F084
:100F9000ABFF002818D10120A1680003814202D1D3
:100FA0002069002812D02168287808856D1C788A6D
:100FB0000028E3D106980090002240212046019BA2
:100FC00000F092FF002808D00320C2E7288821689B
:100FD000C005C00D0885AD1CE9E720207072002017
:100FE0003072B6E70220B4E7FEE7000010B506480D
:100FF000006880694005400F034802D0FFF72DFAD2
:1010000010BDFFF756FA10BD1000002010B5406A61
:1010100001684A680123DB031A434A60826B00219E
:101020005163C26B5163014640314A78602A02D055
:10103000FFF747FA10BD20224A70FFF70CFA10BDE7
:10104000F0B503460022CE0740332824B025002EF9
:1010500005D05E7842222746B74300D0F2228E07A1
:1010600005D544265B7832439C4300D02A434B0786
:1010700001D5B8231A4311238B4301D190231A437E
:1010800012238B4301D160210A4300680168914318
:1010900001600020F0BD000070B5164D1223446BB6
:1010A000002220268B43AC4202D0134DAC420DD11E
:1010B0004C0700D5B82211248C4301D190210A435A
:1010C000002B11D1324340210A430DE04C0700D5DB
:1010D000B822CC0701D0F2242243890701D5F4219C
:1010E0000A43002B00D132430068016811430160BC
:1010F000002070BDDF140008C916000801688A6965
:10110000D243920701D400228A6200688169C943F0
:10111000C90703D081690122114381617047F8B585
:10112000054604464035687828218143206804D06C
:101130000821C16100202870F8BD8169C903CF0F63
:101140008169FE230E0C81681E408A05C168920DDC
:1011500019408C46E168022912D10621D3090E40BC
:101160000B409E420BD1A16C491CA164A16C0229C9
:10117000E2D10021A1640823C361297007E066461B
:1011800004212046FFF75CFF0020287032463946D4
:101190002046FFF761F9F8BDF8B500260546403551
:1011A0000446AE702C48E0626685606C084360645B
:1011B00068782027282823D06878292820D06878C4
:1011C0002A281DD007212046FFF73AFF68786028BB
:1011D00000D06F7026636663206801684A041F4967
:1011E000026817D501239B039A430260A06B4163F9
:1011F0002E70A06BFEF7F6FF00281DD0A06B19E043
:1012000003212046FFF71CFF28206870266314483E
:101210006063E1E7120410D502680123DB039A43FF
:101220000260E06B41632E70E06BFEF7DBFF00288D
:1012300002D0E06B416B8847F8BD6878602804D025
:101240002E702046FFF73DF9F8BD6F702E702046D6
:10125000FFF701F9F8BD00000000FFFF0D100008C6
:101260003117000870B504461548E0620025256373
:10127000202220464030064642708570656348074C
:1012800011D52068416A606A421C62620170208D3B
:10129000002808D0401E2085608D401E6085606C4F
:1012A00004210843606407212046FFF7C9FE216836
:1012B0001020C86135702046FFF75EF970BD000050
:1012C0000000FFFFF8B5064600682027C7613068B8
:1012D0004268224B1A4042600025356320487563FE
:1012E000F062C80606D531681020C861706C042110
:1012F000084370643046FFF701FF03213046FFF7D3
:101300009FFE706C002814D1344640346078602809
:101310000FD06078212811D06078222808D167701A
:10132000A078A57040282570304614D0FFF725F925
:10133000F8BD716C3046FFF72FFFF8BD6770A078DD
:10134000A57040282570304602D0FFF717F9F8BD88
:10135000FFF755F9F8BDFFF751F9F8BD00E800FEB9
:101360000000FFFF70B50025064640360446B57004
:1013700071782020212970700BD012202063022167
:1013800020466563FFF75CFE35702046FFF7F5F8F1
:1013900070BD11202063012120466563FFF750FED8
:1013A00035702046FFF7EAF870BD0000F8B5044636
:1013B000006820260F46C66121680820C861072101
:1013C0002046FFF73DFE20684168B20211434160AC
:1013D000206841682D4A114041602046FFF78EFE8B
:1013E00020680168254649044035002902DB016870
:1013F000090406D5697821292FD0E16B096849686D
:101400006185628D0421002A02D0626C0A43626405
:101410007A070FD5426A606A431C63620270208DAE
:10142000002807D0401E2085608D401E6085606CBE
:101430000843606400202063A8706063616C002929
:101440000DD0616C2046FFF7A7FE6878282803D1ED
:1014500039462046FFF706FFF8BDA16BCEE7E26AEA
:101460000B498A4206D0E1626E7028702046FFF771
:1014700083F8F8BD69786E7022292870204602D062
:10148000FFF7EDF8F8BDFFF7E9F8F8BD00E800FE5A
:101490000000FFFF70B50026044640340546A670E4
:1014A0006178282029290ED061782A290AD1607014
:1014B0002220286302212846FFF7C2FD2670284615
:1014C000FFF7CCF870BD6070212028630121284609
:1014D000FFF7B6FD26702846FFF7C1F870BDF8B5D6
:1014E0000546044640352878012816D0012028708A
:1014F000C8060026002812DAD00610D52168102070
:10150000C861606C04210843606412212046FFF723
:10151000C3FD2046FFF7F2FD3FE00220F8BD0806BC
:1015200034D5500632D520680168402291430160CD
:10153000608D002825D0206840688105608D890D68
:10154000FF2803D9FF202085930403E0608D012349
:1015500020855B060096208DC2B2204600F074F90B
:10156000608D218D401A6085687822282068016886
:1015700004D001229203114301600EE00122D20344
:10158000F9E740212046FFF707FE06E0880604D56C
:10159000900602D52046FFF795FE2E700020F8BD7C
:1015A000F8B5074604464037387815460E460128F8
:1015B00010D001203870F0060ED5E8060CD5216851
:1015C0001020C861606C0421084360642046FFF766
:1015D00095FD5BE00220F8BD700708D5680706D5C9
:1015E0002068416A606A421C6262017009E0B007CB
:1015F0000ED5A8070CD5606A411C6162216800788D
:101600008862208D401E2085608D401E60853DE0F3
:101610002C4A30062FD568062DD5208D002825D1DF
:10162000608D002822D0206840688105608D890D7A
:10163000FF2806D9FF220020228501231B060090E7
:1016400010E0608D2085E06A904205D00020009077
:10165000E36A208DC2B205E000200090208D0123B6
:10166000C2B25B06204600F0EFF80FE02068406849
:10167000800123D506E0700608D5680606D5608D82
:1016800000280ED040212046FFF786FDB00605D584
:10169000A80603D531462046FFF714FE0020387017
:1016A000F8BD206841688901F0D4E16A914205D112
:1016B00041680122920311434160E7E72046FFF7AA
:1016C00051FEE3E70000FFFF10B5044640342378E5
:1016D000012B15D001232370CB0618D5D30616D5C0
:1016E000617821290ED0C16B096849681022002950
:1016F0000AD00168CA61416C04221143416414E0BC
:10170000022010BD816BEFE70068C2610DE00B079E
:1017100005D5130703D500680821C16105E08B06D4
:1017200003D5920601D5FFF741FE0020207010BDC1
:10173000F8B5054604464035287816460F46012878
:1017400011D0012028703F49F8062DD5F0062BD581
:10175000628D1020002A08D02168C861606C0421C5
:101760000843606462E00220F8BDE36A0122520689
:10177000934202D0E36A934202D16A78282A08D0C1
:10178000E26A8A4202D06978292907D02168C861B3
:101790004CE039462046FFF765FD47E02168C86107
:1017A0002046FFF7ABFC3EE0780717D5700715D54C
:1017B000608D00280BD02068426A606A431C636217
:1017C0000270208D401E2085608D401E6085608DDA
:1017D00000282BD1E06A884225D127E0380706D5BA
:1017E000300704D539462046FFF799FC1EE0B807BC
:1017F0001CD5B0071AD5608D00280CD0606A411C3A
:101800006162216800788862608D401E6085208D4D
:10181000401E20850AE0E06A01210906884202D0C4
:10182000E06A002802D12046FFF734FEB80605D54D
:10183000B00603D539462046FFF7B8FD00202870D2
:10184000F8BD00000000FFFF70B50568049C6868E3
:101850008905890D1204044E114319433040214378
:101860000143696070BD0000009800FC70B51B4822
:1018700086B04269012149040A43426142690A4033
:101880000592426949000A434261406909260840BD
:10189000CD10F6060590012229463046FEF785FD5B
:1018A0000F48002400900194694602943046FEF7E8
:1018B000CBFCFF2080000090019469460294094807
:1018C000FEF7C2FC112001900120039000950294C4
:1018D00069463046FEF7B8FC06B070BD0010024005
:1018E000FF0100000004004810B5124810490160D3
:1018F00011494160142181600121C1600021016111
:1019000041618161C1610162FEF7DCFD002800D008
:10191000FEE700210748FEF755FD002800D0FEE74E
:1019200000210448FEF773FD002800D0FEE710BD3B
:101930000058004010000020885D801010B50C4851
:101940000A4901604B21C901416000218160C160E9
:1019500001618161C1610C22016242614162FFF754
:1019600083FA002800D0FEE710BD000000380140D7
:101970005C000020704700008307FF22DB0E9A40C6
:101980008907090E994000280BDA0007000F083874
:10199000830808489B001818C36993430B43C3612D
:1019A0007047830804489B001B181868904308433D
:1019B0001860704700ED00E000E400E070B5FF261D
:1019C00009240136E40631462046FEF7E9FCF5011C
:1019D000002807D1002229462046FEF7E6FCFA201F
:1019E000FEF724FC31462046FEF7DAFC012804D13C
:1019F000012229462046FEF7D8FC70BD10B5FFF73E
:101A0000DDFF00F003F810BD7047000070B5092538
:101A1000ED0601212846FEF7C3FC4B4CC0012070A7
:101A200002212846FEF7BCFC810120780143217089
:101A300004212846FEF7B4FC4101207801432170BF
:101A400008212846FEF7ACFC2178000108432070ED
:101A500010212846FEF7A4FC2178C000084320701E
:101A600020212846FEF79CFC217880000843207046
:101A700040212846FEF794FC21784000084320705E
:101A800080212846FEF78CFC21780843207001460F
:101A90002EA000F05BFA01232B4A0B212E48FEF703
:101AA0006FFD0028F7D12D4D04212846FEF778FC64
:101AB000254CC001641C207008212846FEF770FCEC
:101AC000810120780143217010212846FEF768FC2F
:101AD000217840010843207020212846FEF760FC51
:101AE000217800010843207040212846FEF758FC69
:101AF000C10020780143217080212846FEF750FC68
:101B00002178800008432070FF2101312846FEF72C
:101B100047FC2178400008432070012149022846F3
:101B2000FEF73EFC21780843207001460CA000F02F
:101B30000DFA054A0123521C0B210748FEF720FD30
:101B40000028F6D170BD0000080000205041203D63
:101B500020307825780D0A0010000020000400488D
:101B60005042203D20307825780D0A00704710B58E
:101B7000FEF776FDFFF774F910BD70B598B0022539
:101B80001020099504900095C0020A90400101269A
:101B900000240B9003960C946846FEF74FFF002834
:101BA00000D0FEE707200D900F9401210E951094B0
:101BB0000DA8FEF73FFE002800D0FEE711A8119601
:101BC0001394FEF7A7FD002800D0FEE7FEF7DCFE29
:101BD0007D21C900FEF78CFAFFF72AF90420FFF7F0
:101BE00019F900221146501EFEF790FD18B070BD85
:101BF000124801680122114301604168104A1140F6
:101C0000416001680F4A114001600168012292049D
:101C10009143016041683F22120491434160C16ACF
:101C200009090901C162016B074A11400163416B57
:101C3000490849004163002181607047001002405B
:101C40000CB8FF08FFFFF6FE2CFEFCFF10B5818CE0
:101C5000C90707D001684A6801235B049A43836A75
:101C60001A434A60818C890707D501684A680123B5
:101C70001B049A43C36A1A434A60818C490707D5FB
:101C800001684A6801239B049A43036B1A434A6024
:101C9000818C090707D501684A680123DB039A4351
:101CA000436B1A434A60818CC90607D50268916864
:101CB00001231B039943836B19439160818C89062F
:101CC00007D501688A6801235B039A43C36B1A43F3
:101CD0008A60818C490612D503685A68012109057A
:101CE000046C8A4322435A60026C8A4207D102681C
:101CF000516803235B059943436C19435160818C00
:101D0000090607D501684A680123DB04806C9A4301
:101D100002434A6010BD0000F8B500260446C666BE
:101D2000FEF74AFB054616492068884202D015494D
:101D300088421DD10068144F000709D501212B46A8
:101D4000002249052046009700F0CEF800280DD16A
:101D50002068006840070BD501212B460022890529
:101D60002046009700F0C0F8002801D00320F8BDFD
:101D7000202060346072A07226720020F8BD00003E
:101D80000038014000440040FFFFFF01F8B5044661
:101D90002369A268E5691A43636910202B43002177
:101DA00025681A432B680E46474F3B4013432B6070
:101DB00023685A6803252D03AA43E5682A435A601D
:101DC000236AA26925681A43AB680B273F02BB430D
:101DD0001343AB603D4F25683D4B0203BD420AD122
:101DE0001B6B9B079B0F20D0012B14D0022B14D010
:101DF000032B1BD10DE0374FBD4210D11B6B0327C6
:101E00003F043B4011D09B1A05D09B1A05D093424A
:101E10000CD102200AE0042008E0082006E02E4B46
:101E20009D4202D02D4B9D4200D100200123E76945
:101E3000DB039F4222D100280CD002280DD00428B9
:101E400013D0082817D001260A0912010807400FED
:101E500010432EE0FEF79EFD09E06168204A480825
:101E60008018FEF745F981B2EEE7FEF7A3FD616841
:101E700040004A08F4E761684808F1E7002808D004
:101E8000022809D004280CD0082815D00126304695
:101E9000F8BDFEF77FFD06E06168124A4808801829
:101EA0000DE0FEF787FD61684A088018FEF720F90B
:101EB00080B22168C860EAE761684808C018FEF788
:101EC00017F980B2E860E2E7F369FFEF00380140FC
:101ED000001002400044004000480040004C004018
:101EE0000024F40000127A00FFB581B017460E46B8
:101EF00004460A9D1DE0681C1BD0002D05D0FEF78E
:101F00005BFA0499401AA84213D920680168FF229D
:101F1000A1329143016020688168490849008160CD
:101F2000202060346072A07200202072032005B06F
:101F3000F0BD2068C1693046884304D00020B84213
:101F4000D9D00020F3E70120F9E700000FB410B565
:101F500003A9044B044A029800F018F810BC08BC0E
:101F600004B01847692200080C00002002E008C8ED
:101F7000121F08C1002AFAD170477047002001E003
:101F800001C1121F002AFBD170470000FFB58FB0BE
:101F90000F460446002606E025280AD0129A119919
:101FA0009047641C761C20780028F5D1304613B089
:101FB000F0BD00250121A14A009500E00543641C05
:101FC00023780846203B98401042F7D120782E28ED
:101FD00015D1042005436078641C2A280AD101CF5A
:101FE000641C00900BE000990A22514330394018DC
:101FF000641C00902078014630390929F3D92078F3
:102000006C280ED004DC4C2813D06A2812D104E0CE
:1020100074280ED07A280DD10BE00120400505432D
:1020200007E00121090562780D43824201D16D1854
:10203000641C641C2078864669284AD008DC002885
:10204000B4D058286DD0632810D0642808D140E05F
:1020500070286BD0732812D0752860D0782860D093
:10206000129A704611999047761CE5E038786946D7
:1020700008720020487202A80190012003E038682D
:1020800001900020C0433F1D69070CD5002500E0EA
:102090006D1C00998D420FDA8542F9DB0199495D8B
:1020A0000029F5D108E0002500E06D1C8542FCDB2D
:1020B0000199495D0029F8D1761907E00198019945
:1020C0000078491C0191129A119990476D1EF5D222
:1020D000B2E00A20029000216802400F039102281A
:1020E0000CD001CFC117844600290DDA624608469C
:1020F00052420021814194462D2008E0FF1DFF0837
:10210000FF0003CF8446EFE7280504D52B206A465D
:10211000107401203CE0E8073AD02020F7E70A20BD
:1021200000E0102000210391029007E010200290AF
:102130000021042005430820039100906802400F0D
:10214000022810D001CF0021844600200D902807DE
:102150001FD5704670280CD0029A1020039B424075
:102160001A430CD015E0FF1DFF08FF0003CF844683
:10217000EBE740206A46107401200D900CE06046A9
:10218000084306D030206A4610747046507402200E
:102190000D907046582804D029A001900DA80E90EB
:1021A0000DE02CA0F9E76046039B029AFDF7C7FFFC
:1021B000019B84469B5C0E9A521E0E9213706046E1
:1021C0000843F0D10E9805A9081A2030019068073D
:1021D00001D5009801E0012000900199884203DDBB
:1021E00001460198081A00E000200025009006E052
:1021F00004A8129A405D119990476D1C761C0D98A9
:102200008542F5DB04E0129A302011999047761C44
:102210000099481E00900029F5DC08E00E980E9900
:102220000078491C0E91129A11999047761C0199D9
:10223000481E01900029F1DC641CB4E60928010065
:10224000303132333435363738396162636465662C
:1022500000000000303132333435363738394142EE
:10226000434445460000000010B5044605487D2360
:1022700004700146DB0001220348FEF751FE2046B0
:1022800010BD00000A0000205C000020FEF7F0F9FD
:10229000FFF773FCFFF7EAFAFFF726FBFFF74EFBA9
:1022A0000248FDF7C3FFFFF7A9FBFCE7B80B0000EE
:1022B00000000000000000000102030406070809F6
:1022C0000000000001020304E822000800000020D2
:1022D000100000006C1F0008F82200081000002009
:1022E000C00400007C1F00080000000000127A00FB
:0822F0000000000000000000E6
:04000005080000C12E
:00000001FF
